{
  "contractName": "AppleShop",
  "abi": [
    {
      "anonymous": false,
      "inputs": [
        {
          "indexed": false,
          "internalType": "uint256",
          "name": "_applePrice",
          "type": "uint256"
        },
        {
          "indexed": false,
          "internalType": "uint8",
          "name": "_quantity",
          "type": "uint8"
        },
        {
          "indexed": false,
          "internalType": "uint8",
          "name": "_myApple",
          "type": "uint8"
        }
      ],
      "name": "buyEvent",
      "type": "event"
    },
    {
      "anonymous": false,
      "inputs": [
        {
          "indexed": false,
          "internalType": "uint256",
          "name": "_applePrice",
          "type": "uint256"
        },
        {
          "indexed": false,
          "internalType": "uint8",
          "name": "_quantity",
          "type": "uint8"
        },
        {
          "indexed": false,
          "internalType": "uint8",
          "name": "_myApple",
          "type": "uint8"
        }
      ],
      "name": "sellEvent",
      "type": "event"
    },
    {
      "inputs": [
        {
          "internalType": "uint256",
          "name": "applePrice",
          "type": "uint256"
        },
        {
          "internalType": "uint8",
          "name": "quantity",
          "type": "uint8"
        }
      ],
      "name": "buyApple",
      "outputs": [],
      "stateMutability": "payable",
      "type": "function",
      "payable": true
    },
    {
      "inputs": [
        {
          "internalType": "uint256",
          "name": "applePrice",
          "type": "uint256"
        },
        {
          "internalType": "uint8",
          "name": "quantity",
          "type": "uint8"
        }
      ],
      "name": "sellApple",
      "outputs": [],
      "stateMutability": "payable",
      "type": "function",
      "payable": true
    },
    {
      "inputs": [
        {
          "internalType": "uint256",
          "name": "applePrice",
          "type": "uint256"
        }
      ],
      "name": "allSellApple",
      "outputs": [],
      "stateMutability": "payable",
      "type": "function",
      "payable": true
    },
    {
      "inputs": [],
      "name": "getApple",
      "outputs": [
        {
          "internalType": "uint256",
          "name": "",
          "type": "uint256"
        }
      ],
      "stateMutability": "view",
      "type": "function",
      "constant": true
    },
    {
      "inputs": [],
      "name": "getOwnerBalance",
      "outputs": [
        {
          "internalType": "uint256",
          "name": "",
          "type": "uint256"
        }
      ],
      "stateMutability": "view",
      "type": "function",
      "constant": true
    }
  ],
  "bytecode": "0x608060405234801561001057600080fd5b50610883806100206000396000f3fe60806040526004361061004a5760003560e01c8063143fe5a51461004f578063590791f21461007a578063bd32d8ed146100a5578063d5458456146100c1578063d7d347d1146100dd575b600080fd5b34801561005b57600080fd5b506100646100f9565b60405161007191906105be565b60405180910390f35b34801561008657600080fd5b5061008f61014f565b60405161009c91906105be565b60405180910390f35b6100bf60048036038101906100ba9190610643565b61016e565b005b6100db60048036038101906100d69190610643565b6102c5565b005b6100f760048036038101906100f29190610683565b61041d565b005b60008060003373ffffffffffffffffffffffffffffffffffffffff1673ffffffffffffffffffffffffffffffffffffffff16815260200190815260200160002060009054906101000a900460ff1660ff16905090565b60003373ffffffffffffffffffffffffffffffffffffffff1631905090565b60008160ff168361017f91906106df565b9050816000803373ffffffffffffffffffffffffffffffffffffffff1673ffffffffffffffffffffffffffffffffffffffff16815260200190815260200160002060008282829054906101000a900460ff166101db9190610721565b92506101000a81548160ff021916908360ff1602179055503373ffffffffffffffffffffffffffffffffffffffff166108fc829081150290604051600060405180830381858888f19350505050158015610239573d6000803e3d6000fd5b507fb5fc961d17123ec21bfe15ad1a654e04d4081eb4cd7b66b9d403e75d2c2c53eb83836000803373ffffffffffffffffffffffffffffffffffffffff1673ffffffffffffffffffffffffffffffffffffffff16815260200190815260200160002060009054906101000a900460ff166040516102b893929190610765565b60405180910390a1505050565b806000803373ffffffffffffffffffffffffffffffffffffffff1673ffffffffffffffffffffffffffffffffffffffff16815260200190815260200160002060008282829054906101000a900460ff1661031f919061079c565b92506101000a81548160ff021916908360ff16021790555060008160ff168361034891906106df565b9050600073ffffffffffffffffffffffffffffffffffffffff166108fc829081150290604051600060405180830381858888f19350505050158015610391573d6000803e3d6000fd5b507f49b5238e6d409e264c2e921c3cfaa8ae37271477510e8615ea0dc79e6ecccead83836000803373ffffffffffffffffffffffffffffffffffffffff1673ffffffffffffffffffffffffffffffffffffffff16815260200190815260200160002060009054906101000a900460ff1660405161041093929190610765565b60405180910390a1505050565b60008060003373ffffffffffffffffffffffffffffffffffffffff1673ffffffffffffffffffffffffffffffffffffffff16815260200190815260200160002060009054906101000a900460ff1660ff168261047991906106df565b905060008060003373ffffffffffffffffffffffffffffffffffffffff1673ffffffffffffffffffffffffffffffffffffffff16815260200190815260200160002060006101000a81548160ff021916908360ff1602179055503373ffffffffffffffffffffffffffffffffffffffff166108fc829081150290604051600060405180830381858888f19350505050158015610519573d6000803e3d6000fd5b507fb5fc961d17123ec21bfe15ad1a654e04d4081eb4cd7b66b9d403e75d2c2c53eb826000803373ffffffffffffffffffffffffffffffffffffffff1673ffffffffffffffffffffffffffffffffffffffff16815260200190815260200160002060009054906101000a900460ff16600060405161059993929190610816565b60405180910390a15050565b6000819050919050565b6105b8816105a5565b82525050565b60006020820190506105d360008301846105af565b92915050565b600080fd5b6105e7816105a5565b81146105f257600080fd5b50565b600081359050610604816105de565b92915050565b600060ff82169050919050565b6106208161060a565b811461062b57600080fd5b50565b60008135905061063d81610617565b92915050565b6000806040838503121561065a576106596105d9565b5b6000610668858286016105f5565b92505060206106798582860161062e565b9150509250929050565b600060208284031215610699576106986105d9565b5b60006106a7848285016105f5565b91505092915050565b7f4e487b7100000000000000000000000000000000000000000000000000000000600052601160045260246000fd5b60006106ea826105a5565b91506106f5836105a5565b9250828202610703816105a5565b9150828204841483151761071a576107196106b0565b5b5092915050565b600061072c8261060a565b91506107378361060a565b9250828203905060ff8111156107505761074f6106b0565b5b92915050565b61075f8161060a565b82525050565b600060608201905061077a60008301866105af565b6107876020830185610756565b6107946040830184610756565b949350505050565b60006107a78261060a565b91506107b28361060a565b9250828201905060ff8111156107cb576107ca6106b0565b5b92915050565b6000819050919050565b6000819050919050565b60006108006107fb6107f6846107d1565b6107db565b61060a565b9050919050565b610810816107e5565b82525050565b600060608201905061082b60008301866105af565b6108386020830185610756565b6108456040830184610807565b94935050505056fea26469706673582212208265b0d5676a47126893c7501cbeb7c729eb78570728915e84cba909279a934a64736f6c63430008110033",
  "immutableReferences": {},
  "source": "// SPDX-License-Identifier: MIT\r\npragma solidity ^0.8.17;\r\n\r\ncontract AppleShop {\r\n    // address , uint , myApple  \r\n    mapping(address => uint8) myApple;\r\n    // payable   CA  ETH    .\r\n    //   value  ETH    .\r\n    //   \r\n    // \r\n    event buyEvent(uint256 _applePrice, uint8 _quantity, uint8 _myApple);\r\n    event sellEvent(uint256 _applePrice, uint8 _quantity, uint8 _myApple);\r\n\r\n    function buyApple(uint256 applePrice, uint8 quantity) public payable {\r\n        myApple[msg.sender] += quantity;\r\n        uint256 buyValue = applePrice * quantity;\r\n        payable(0).transfer(buyValue);\r\n        emit buyEvent(applePrice, quantity, myApple[msg.sender]);\r\n    }\r\n\r\n    //    \r\n    function sellApple(uint256 applePrice, uint8 quantity) public payable {\r\n        uint256 refund = applePrice * quantity;\r\n        myApple[msg.sender] -= quantity;\r\n        // payable     .\r\n        //     \r\n        //    \r\n        payable(msg.sender).transfer(refund);\r\n        emit sellEvent(applePrice, quantity, myApple[msg.sender]);\r\n    }\r\n\r\n    function allSellApple(uint256 applePrice) public payable {\r\n        uint256 refund = applePrice * myApple[msg.sender];\r\n        myApple[msg.sender] = 0;\r\n        // payable     .\r\n        //     \r\n        //    \r\n        payable(msg.sender).transfer(refund);\r\n        emit sellEvent(applePrice, myApple[msg.sender], 0);\r\n    }\r\n\r\n    //     \r\n    function getApple() public view returns (uint256) {\r\n        return myApple[msg.sender];\r\n    }\r\n\r\n    function getOwnerBalance() public view returns (uint256) {\r\n        return msg.sender.balance;\r\n    }\r\n}\r\n",
  "sourcePath": "C:\\Users\\KGA_\\11.30\\crypto\\contracts\\ApppleShop.sol",
  "compiler": {
    "name": "solc",
    "version": "0.8.17+commit.8df45f5f.Emscripten.clang"
  },
  "schemaVersion": "3.4.11",
  "updatedAt": "2022-11-30T07:31:59.596Z",
  "networkType": "ethereum",
  "devdoc": {
    "kind": "dev",
    "methods": {},
    "version": 1
  },
  "userdoc": {
    "kind": "user",
    "methods": {},
    "version": 1
  }
}